{
  "contractName": "HashCracker",
  "abi": [
    {
      "constant": false,
      "inputs": [
        {
          "name": "_hash",
          "type": "bytes32"
        },
        {
          "name": "_input",
          "type": "bytes"
        }
      ],
      "name": "requestScryptHashCrack",
      "outputs": [],
      "payable": false,
      "stateMutability": "nonpayable",
      "type": "function"
    },
    {
      "constant": true,
      "inputs": [],
      "name": "oracle",
      "outputs": [
        {
          "name": "",
          "type": "address"
        }
      ],
      "payable": false,
      "stateMutability": "view",
      "type": "function"
    },
    {
      "constant": true,
      "inputs": [
        {
          "name": "_hash",
          "type": "bytes32"
        }
      ],
      "name": "getScrypt",
      "outputs": [
        {
          "name": "ciphertext",
          "type": "bytes32"
        },
        {
          "name": "dklen",
          "type": "uint8"
        },
        {
          "name": "salt",
          "type": "bytes32"
        },
        {
          "name": "n",
          "type": "uint16"
        },
        {
          "name": "r",
          "type": "uint8"
        },
        {
          "name": "p",
          "type": "uint8"
        },
        {
          "name": "mac",
          "type": "bytes32"
        }
      ],
      "payable": false,
      "stateMutability": "view",
      "type": "function"
    },
    {
      "constant": true,
      "inputs": [
        {
          "name": "_sender",
          "type": "address"
        }
      ],
      "name": "isOracle",
      "outputs": [
        {
          "name": "",
          "type": "bool"
        }
      ],
      "payable": false,
      "stateMutability": "view",
      "type": "function"
    },
    {
      "constant": true,
      "inputs": [
        {
          "name": "",
          "type": "bytes32"
        }
      ],
      "name": "scryptHashParams",
      "outputs": [
        {
          "name": "hash",
          "type": "bytes32"
        },
        {
          "name": "ciphertext",
          "type": "bytes32"
        },
        {
          "name": "dklen",
          "type": "uint8"
        },
        {
          "name": "salt",
          "type": "bytes32"
        },
        {
          "name": "n",
          "type": "uint16"
        },
        {
          "name": "r",
          "type": "uint8"
        },
        {
          "name": "p",
          "type": "uint8"
        },
        {
          "name": "mac",
          "type": "bytes32"
        }
      ],
      "payable": false,
      "stateMutability": "view",
      "type": "function"
    },
    {
      "constant": true,
      "inputs": [
        {
          "name": "",
          "type": "uint256"
        }
      ],
      "name": "hashCracks",
      "outputs": [
        {
          "name": "requestorAddress",
          "type": "address"
        },
        {
          "name": "bountyValue",
          "type": "uint256"
        },
        {
          "name": "hashBytes",
          "type": "bytes32"
        },
        {
          "name": "hashType",
          "type": "string"
        },
        {
          "name": "crackerAddress",
          "type": "address"
        },
        {
          "name": "crackerPassword",
          "type": "string"
        },
        {
          "name": "cancelled",
          "type": "bool"
        },
        {
          "name": "redeemed",
          "type": "bool"
        }
      ],
      "payable": false,
      "stateMutability": "view",
      "type": "function"
    },
    {
      "inputs": [
        {
          "name": "_oracleAddress",
          "type": "address"
        }
      ],
      "payable": false,
      "stateMutability": "nonpayable",
      "type": "constructor"
    },
    {
      "anonymous": false,
      "inputs": [
        {
          "indexed": false,
          "name": "requestorAddress",
          "type": "address"
        },
        {
          "indexed": false,
          "name": "bountyValue",
          "type": "uint256"
        },
        {
          "indexed": false,
          "name": "hashBytes",
          "type": "bytes32"
        },
        {
          "indexed": false,
          "name": "hashType",
          "type": "string"
        }
      ],
      "name": "NewHashEvent",
      "type": "event"
    },
    {
      "anonymous": false,
      "inputs": [
        {
          "indexed": false,
          "name": "hashCrackIndex",
          "type": "uint256"
        },
        {
          "indexed": false,
          "name": "crackerAddress",
          "type": "address"
        },
        {
          "indexed": false,
          "name": "crackerPassword",
          "type": "string"
        }
      ],
      "name": "RequestHashCheck",
      "type": "event"
    },
    {
      "anonymous": false,
      "inputs": [
        {
          "indexed": false,
          "name": "crackerAddress",
          "type": "address"
        },
        {
          "indexed": false,
          "name": "hashCrackIndex",
          "type": "uint256"
        }
      ],
      "name": "CrackedHashEvent",
      "type": "event"
    },
    {
      "anonymous": false,
      "inputs": [
        {
          "indexed": false,
          "name": "hash",
          "type": "bytes32"
        }
      ],
      "name": "Log",
      "type": "event"
    },
    {
      "constant": false,
      "inputs": [
        {
          "name": "_hash",
          "type": "bytes32"
        },
        {
          "name": "_hashType",
          "type": "string"
        },
        {
          "name": "_input",
          "type": "bytes"
        }
      ],
      "name": "requestHashCrack",
      "outputs": [],
      "payable": true,
      "stateMutability": "payable",
      "type": "function"
    },
    {
      "constant": false,
      "inputs": [
        {
          "name": "_index",
          "type": "uint256"
        },
        {
          "name": "_password",
          "type": "string"
        }
      ],
      "name": "submitCrack",
      "outputs": [],
      "payable": true,
      "stateMutability": "payable",
      "type": "function"
    },
    {
      "constant": false,
      "inputs": [
        {
          "name": "_index",
          "type": "uint256"
        },
        {
          "name": "_crackerAddress",
          "type": "address"
        },
        {
          "name": "_crackerPassword",
          "type": "string"
        }
      ],
      "name": "submitValidCrack",
      "outputs": [],
      "payable": false,
      "stateMutability": "nonpayable",
      "type": "function"
    },
    {
      "constant": false,
      "inputs": [
        {
          "name": "_index",
          "type": "uint256"
        }
      ],
      "name": "cancelHashCrack",
      "outputs": [],
      "payable": false,
      "stateMutability": "nonpayable",
      "type": "function"
    },
    {
      "constant": false,
      "inputs": [
        {
          "name": "_index",
          "type": "uint256"
        }
      ],
      "name": "redeemRewardUnsafe",
      "outputs": [],
      "payable": false,
      "stateMutability": "nonpayable",
      "type": "function"
    },
    {
      "constant": true,
      "inputs": [],
      "name": "getHashCracksLength",
      "outputs": [
        {
          "name": "",
          "type": "uint256"
        }
      ],
      "payable": false,
      "stateMutability": "view",
      "type": "function"
    }
  ],
  "bytecode": "0x608060405234801561001057600080fd5b506040516020806118ff833981016040818152915160018054600160a060020a03909216600160a060020a03199092169190911781557f736861323536000000000000000000000000000000000000000000000000000082526003600680840182905284519384900360269081018520805460ff1990811686179091557f7368613300000000000000000000000000000000000000000000000000000000865260048601849052865195869003602401862080548216861790557f73637279707400000000000000000000000000000000000000000000000000008652918501929092529351928390030190912080549092161790556117ea806101156000396000f3006080604052600436106100b95763ffffffff7c01000000000000000000000000000000000000000000000000000000006000350416631e9d6c1381146100be5780635cb591fa1461011e5780636793dde71461016f578063773f1b54146101fe5780637dc0d1d014610216578063846293c31461024757806387792e12146102a557806390fdecda1461030e578063a97e5c9314610335578063ba7d73361461036a578063c411841414610382578063da8de31b146103e5575b600080fd5b3480156100ca57600080fd5b5060408051602060046024803582810135601f810185900485028601850190965285855261011c95833595369560449491939091019190819084018382808284375094975061051c9650505050505050565b005b60408051602060046024803582810135601f810185900485028601850190965285855261011c9583359536956044949193909101919081908401838280828437509497506106ff9650505050505050565b60408051602060046024803582810135601f810185900485028601850190965285855261011c95833595369560449491939091019190819084018382808284375050604080516020601f89358b018035918201839004830284018301909452808352979a999881019791965091820194509250829150840183828082843750949750610b449650505050505050565b34801561020a57600080fd5b5061011c600435610ef6565b34801561022257600080fd5b5061022b610f99565b60408051600160a060020a039092168252519081900360200190f35b34801561025357600080fd5b5061025f600435610fa8565b6040805197885260ff96871660208901528781019590955261ffff9093166060870152908416608086015290921660a084015260c0830191909152519081900360e00190f35b3480156102b157600080fd5b50604080516020600460443581810135601f810184900484028501840190955284845261011c9482359460248035600160a060020a031695369594606494920191908190840183828082843750949750610ff49650505050505050565b34801561031a57600080fd5b506103236110d5565b60408051918252519081900360200190f35b34801561034157600080fd5b50610356600160a060020a03600435166110dc565b604080519115158252519081900360200190f35b34801561037657600080fd5b5061011c6004356110f0565b34801561038e57600080fd5b5061039a600435611204565b60408051988952602089019790975260ff95861688880152606088019490945261ffff9092166080870152831660a086015290911660c084015260e083015251908190036101000190f35b3480156103f157600080fd5b506103fd600435611258565b60408051600160a060020a03808b16825260208083018b90529282018990528616608082015283151560c082015282151560e08201526101006060820181815288519183019190915287519192909160a0840191610120850191908a019080838360005b83811015610479578181015183820152602001610461565b50505050905090810190601f1680156104a65780820380516001836020036101000a031916815260200191505b50838103825286518152865160209182019188019080838360005b838110156104d95781810151838201526020016104c1565b50505050905090810190601f1680156105065780820380516001836020036101000a031916815260200191505b509a505050505050505050505060405180910390f35b60008060008060008060008888806040518082805190602001908083835b602083106105595780518252601f19909201916020918201910161053a565b5181516020939093036101000a600019018019909116921691909117905260405192018290039091208514925061059291505057600080fd5b61059b8a6113da565b809950819a50829b50839c50849d50859e50869f5050505050505050610100604051908101604052808c6000191681526020018a6000191681526020018960ff168152602001886000191681526020018761ffff1681526020018660ff1681526020018560ff16815260200184600019168152506000808d60001916600019168152602001908152602001600020600082015181600001906000191690556020820151816001019060001916905560408201518160020160006101000a81548160ff021916908360ff1602179055506060820151816003019060001916905560808201518160040160006101000a81548161ffff021916908361ffff16021790555060a08201518160040160026101000a81548160ff021916908360ff16021790555060c08201518160040160036101000a81548160ff021916908360ff16021790555060e082015181600501906000191690559050505050505050505050505050565b60008066038d7ea4c680003481111561071757600080fd5b600154604051600160a060020a03909116903480156108fc02916000818181858888f19350505050158015610750573d6000803e3d6000fd5b50600280548690811061075f57fe5b9060005260206000209060070201915060405180807f736861323536000000000000000000000000000000000000000000000000000081525060060190506040518091039020600019168260030160405180828054600181600116156101000203166002900480156108085780601f106107e6576101008083540402835291820191610808565b820191906000526020600020905b8154815290600101906020018083116107f4575b505091505060405180910390206000191614156108bc576002846040518082805190602001908083835b602083106108515780518252601f199092019160209182019101610832565b51815160209384036101000a600019018019909216911617905260405191909301945091925050808303816000865af1158015610892573d6000803e3d6000fd5b5050506040513d60208110156108a757600080fd5b505192506108b78533868661145d565b610b3d565b604080517f73686133000000000000000000000000000000000000000000000000000000008152905190819003600401812060038401805491929091819083906002610100600183161502600019019091160480156109525780601f10610930576101008083540402835291820191610952565b820191906000526020600020905b81548152906001019060200180831161093e575b505091505060405180910390206000191614156109d457836040518082805190602001908083835b602083106109995780518252601f19909201916020918201910161097a565b6001836020036101000a038019825116818451168082178552505050505050905001915050604051809103902092506108b78533868661145d565b604080517f7363727970740000000000000000000000000000000000000000000000000000815290519081900360060181206003840180549192909181908390600261010060018316150260001901909116048015610a6a5780601f10610a48576101008083540402835291820191610a6a565b820191906000526020600020905b815481529060010190602001808311610a56575b505091505060405180910390206000191614156100b9577f52e0a2aaa607920fb5dd8c244aef8f719b3418761c639091c1b396392d2516708533866040518084815260200183600160a060020a0316600160a060020a0316815260200180602001828103825283818151815260200191508051906020019080838360005b83811015610b00578181015183820152602001610ae8565b50505050905090810190601f168015610b2d5780820380516001836020036101000a031916815260200191505b5094505050505060405180910390a15b5050505050565b816003816040518082805190602001908083835b60208310610b775780518252601f199092019160209182019101610b58565b51815160209384036101000a600019018019909216911617905292019485525060405193849003019092205460ff1615159150610bb5905057600080fd5b66038d7ea4c6800034811115610bca57600080fd5b604080517f736372797074000000000000000000000000000000000000000000000000000081529051908190036006018120855190918691819060208401908083835b60208310610c2c5780518252601f199092019160209182019101610c0d565b6001836020036101000a0380198251168184511680821785525050505050509050019150506040518091039020600019161415610c6d57610c6d858461051c565b604080516101008101825233600160a060020a0390811682523460208084019182528385018a8152606085018a8152600060808701819052875180850190985280885260a087019790975260c0860187905260e0860187905260028054600181018083559190985286517f405787fa12a823e0f2b7631cc41b3ba8828b3321ca811111fa75cd3aa3bb5ace6007909902988901805473ffffffffffffffffffffffffffffffffffffffff19169190971617865593517f405787fa12a823e0f2b7631cc41b3ba8828b3321ca811111fa75cd3aa3bb5acf88015590517f405787fa12a823e0f2b7631cc41b3ba8828b3321ca811111fa75cd3aa3bb5ad08701555180519295610da4937f405787fa12a823e0f2b7631cc41b3ba8828b3321ca811111fa75cd3aa3bb5ad1909101929190910190611726565b50608082015160048201805473ffffffffffffffffffffffffffffffffffffffff1916600160a060020a0390921691909117905560a08201518051610df3916005840191602090910190611726565b5060c08201516006909101805460e09093015115156101000261ff001992151560ff1990941693909317919091169190911790555060408051600160a060020a0333908116825234602080840182905293830189905260806060840181815289519185019190915288517f7fa461e2168f2e67290a768902eeef413a7086b80bd00282808b6bb55681da2395939492938b938b939092909160a08401919085019080838360005b83811015610eb2578181015183820152602001610e9a565b50505050905090810190601f168015610edf5780820380516001836020036101000a031916815260200191505b509550505050505060405180910390a15050505050565b6000600282815481101515610f0757fe5b6000918252602090912060046007909202019081015490915033600160a060020a039081169116148015610f4557506006810154610100900460ff16155b156100b95760068101805461ff0019166101001790556001810154604051600160a060020a0333169180156108fc02916000818181858888f19350505050158015610f94573d6000803e3d6000fd5b505050565b600154600160a060020a031681565b60009081526020819052604090206001810154600282015460038301546004840154600590940154929460ff92831694919361ffff831693620100008404811693630100000090041691565b600030600160a060020a031663a97e5c93336040518263ffffffff167c01000000000000000000000000000000000000000000000000000000000281526004018082600160a060020a0316600160a060020a03168152602001915050602060405180830381600087803b15801561106a57600080fd5b505af115801561107e573d6000803e3d6000fd5b505050506040513d602081101561109457600080fd5b505115156110a157600080fd5b60028054859081106110af57fe5b906000526020600020906007020190506110cf848484846002015461145d565b50505050565b6002545b90565b600154600160a060020a0390811691161490565b60008133600160a060020a031660028281548110151561110c57fe5b6000918252602090912060079091020154600160a060020a03161461113057600080fd5b8260028181548110151561114057fe5b6000918252602090912060046007909202010154600160a060020a031615801561118c5750600280548290811061117357fe5b600091825260209091206006600790920201015460ff16155b151561119757600080fd5b60028054859081106111a557fe5b6000918252602082206006600790920201908101805460ff19166001908117909155815490820154604051929650600160a060020a039091169281156108fc029290818181858888f19350505050158015610b3d573d6000803e3d6000fd5b6000602081905290815260409020805460018201546002830154600384015460048501546005909501549394929360ff92831693919261ffff83169262010000810482169263010000009091049091169088565b600280548290811061126657fe5b60009182526020918290206007919091020180546001808301546002808501546003860180546040805161010097831615979097026000190190911693909304601f8101899004890286018901909352828552600160a060020a03909516975091959194939183018282801561131d5780601f106112f25761010080835404028352916020019161131d565b820191906000526020600020905b81548152906001019060200180831161130057829003601f168201915b50505050600483015460058401805460408051602060026101006001861615026000190190941693909304601f81018490048402820184019092528181529596600160a060020a0390941695939450908301828280156113be5780601f10611393576101008083540402835291602001916113be565b820191906000526020600020905b8154815290600101906020018083116113a157829003601f168201915b5050506006909301549192505060ff8082169161010090041688565b600080600080600080600087805160651415156113f657600080fd5b61140189600061157f565b975061140e89602061160d565b965061141b89602161157f565b9550611428896041611676565b945061143589604361160d565b935061144289604461160d565b925061144f89604561157f565b915050919395979092949650565b60008460028181548110151561146f57fe5b6000918252602090912060046007909202010154600160a060020a03161580156114bb575060028054829081106114a257fe5b600091825260209091206006600790920201015460ff16155b15156114c657600080fd5b60028054879081106114d457fe5b6000918252602090912060079091020160028101549092508314156100b95760048201805473ffffffffffffffffffffffffffffffffffffffff1916600160a060020a03871617905583516115329060058401906020870190611726565b5060408051600160a060020a03871681526020810188905281517f0d543ef6f4a593d88bf5126fc281243b51bdff236df66b9dbf4932f84fba8e0c929181900390910190a1505050505050565b600080805b60208110156116055780600802858286018151811015156115a157fe5b60209101015160029190910a7f0100000000000000000000000000000000000000000000000000000000000000918290049091027fff0000000000000000000000000000000000000000000000000000000000000016049190911790600101611584565b509392505050565b600080838381518110151561161e57fe5b6020910101517f01000000000000000000000000000000000000000000000000000000000000009081900481027fff000000000000000000000000000000000000000000000000000000000000001604179392505050565b600080805b60028110156116fc57806008028582860181518110151561169857fe5b60209101015160029190910a7f0100000000000000000000000000000000000000000000000000000000000000918290049091027fff000000000000000000000000000000000000000000000000000000000000001604919091179060010161167b565b507e0100000000000000000000000000000000000000000000000000000000000090049392505050565b828054600181600116156101000203166002900490600052602060002090601f016020900481019282601f1061176757805160ff1916838001178555611794565b82800160010185558215611794579182015b82811115611794578251825591602001919060010190611779565b506117a09291506117a4565b5090565b6110d991905b808211156117a057600081556001016117aa5600a165627a7a7230582083f6b28341d04fe7affabda291e4e0e2e00965a4c85eb26a9a257050a92eaab50029",
  "source": "pragma solidity 0.4.23;\n\nimport \"./Scrypt.sol\";\nimport \"./Oracle.sol\";\n\ncontract HashCracker is Scrypt, Oracle {\n  \n    event NewHashEvent(address requestorAddress, uint bountyValue, bytes32 hashBytes, string hashType);\n    event RequestHashCheck(uint hashCrackIndex, address crackerAddress, string crackerPassword);\n    event CrackedHashEvent(address crackerAddress, uint hashCrackIndex);\n \n    struct HashCrack {\n        address requestorAddress;\n        uint bountyValue;\n\n        bytes32 hashBytes;\n        string hashType;\n       \n        address crackerAddress;\n        string crackerPassword;\n\n        bool cancelled;\n        bool redeemed;\n    }\n\n    HashCrack[] public hashCracks;\n    mapping (string => bool) validHashTypes;\n\n    modifier hashCrackBySender(uint _index) {\n        require(hashCracks[_index].requestorAddress == msg.sender);\n        _;\n    }\n\n    modifier validHashType(string _hashType) {\n        require(validHashTypes[_hashType]);\n        _;\n    }\n\n    modifier validHashCrack(uint _index) {\n        require(hashCracks[_index].crackerAddress == 0x00 && !hashCracks[_index].cancelled);\n        _;\n    }\n    \n    modifier validMinValue(uint _value) {\n        require(msg.value >= _value);\n        _;\n    }\n\n    constructor(address _oracleAddress)\n    Oracle(_oracleAddress)\n    public \n    {\n        validHashTypes[\"sha256\"] = true;\n        validHashTypes[\"sha3\"] = true;\n        validHashTypes[\"scrypt\"] = true;\n    }\n\n    function requestHashCrack(bytes32 _hash, string _hashType, bytes _input)\n    validHashType(_hashType)\n    validMinValue(0.001 ether)\n    payable\n    public \n    {\n        if (keccak256(_hashType) == keccak256(\"scrypt\")) {\n            requestScryptHashCrack(_hash, _input);\n        }\n        hashCracks.push(HashCrack(msg.sender, msg.value, _hash, _hashType, 0x00, \"\", false, false));\n        emit NewHashEvent(msg.sender, msg.value, _hash, _hashType);\n    }\n\n    function submitCrack(uint _index, string _password) \n    validMinValue(0.001 ether)\n    payable\n    public \n    {\n        oracle.transfer(msg.value);\n        bytes32 hashedPassword;\n        HashCrack storage hashCrack = hashCracks[_index];\n        if (keccak256(hashCrack.hashType) == keccak256(\"sha256\")) {\n            hashedPassword = sha256(_password);\n            handleCrackAttemptInternal(_index, msg.sender, _password, hashedPassword);\n        } else if (keccak256(hashCrack.hashType) == keccak256(\"sha3\")) {\n            hashedPassword = keccak256(_password);\n            handleCrackAttemptInternal(_index, msg.sender, _password, hashedPassword);\n        } else if (keccak256(hashCrack.hashType) == keccak256(\"scrypt\")) {\n            emit RequestHashCheck(_index, msg.sender, _password);\n        } else {\n            revert();\n        }\n    }\n\n    function submitValidCrack(uint _index, address _crackerAddress, string _crackerPassword) \n    onlyOracle\n    public \n    {\n        HashCrack storage hashCrack = hashCracks[_index];\n        handleCrackAttemptInternal(_index, _crackerAddress, _crackerPassword, hashCrack.hashBytes);\n    }\n\n    function handleCrackAttemptInternal(uint _index, address _crackerAddress, string _crackerPassword, bytes32 _hashedPassword)\n    validHashCrack(_index)\n    internal\n    {\n        HashCrack storage hashCrack = hashCracks[_index];\n        if (_hashedPassword == hashCrack.hashBytes) {\n            hashCrack.crackerAddress = _crackerAddress;\n            hashCrack.crackerPassword = _crackerPassword;\n\n            emit CrackedHashEvent(_crackerAddress, _index);\n            \n            // if (keccak256(hashCrack.hashType) == keccak256(\"sha256\") || keccak256(hashCrack.hashType) == keccak256(\"sha3\")) {\n            //     redeemRewardUnsafe(_index);\n            // }\n        } else {\n            revert();\n        }\n    }\n\n    function cancelHashCrack(uint _index)\n    hashCrackBySender(_index) \n    validHashCrack(_index)\n    public \n    {\n        HashCrack storage hashCrack = hashCracks[_index];\n        hashCrack.cancelled = true;\n        address(hashCrack.requestorAddress).transfer(hashCrack.bountyValue);\n    }\n\n    function redeemRewardUnsafe(uint _index)\n    public\n    {\n        HashCrack storage hashCrack = hashCracks[_index];\n        if (msg.sender == hashCrack.crackerAddress && !hashCrack.redeemed) {\n            hashCrack.redeemed = true;\n            address(msg.sender).transfer(hashCrack.bountyValue);\n        } else {\n            revert();\n        }\n    }\n\n    function getHashCracksLength() \n    public \n    view \n    returns(uint) \n    {\n        return hashCracks.length;\n    }\n}\n",
  "sourcePath": "/Volumes/code/projects/decipher/contracts/HashCracker.sol",
  "compiler": {
    "name": "solc",
    "version": "0.4.23+commit.124ca40d.Emscripten.clang"
  },
  "schemaVersion": "2.0.0",
  "updatedAt": "2018-05-17T20:04:34.012Z"
}