{
  "contractName": "HashCracker",
  "abi": [
    {
      "constant": false,
      "inputs": [
        {
          "name": "_hash",
          "type": "bytes32"
        },
        {
          "name": "_input",
          "type": "bytes"
        }
      ],
      "name": "requestScryptHashCrack",
      "outputs": [],
      "payable": false,
      "stateMutability": "nonpayable",
      "type": "function"
    },
    {
      "constant": true,
      "inputs": [],
      "name": "oracle",
      "outputs": [
        {
          "name": "",
          "type": "address"
        }
      ],
      "payable": false,
      "stateMutability": "view",
      "type": "function"
    },
    {
      "constant": true,
      "inputs": [
        {
          "name": "_hash",
          "type": "bytes32"
        }
      ],
      "name": "getScrypt",
      "outputs": [
        {
          "name": "ciphertext",
          "type": "bytes32"
        },
        {
          "name": "dklen",
          "type": "uint8"
        },
        {
          "name": "salt",
          "type": "bytes32"
        },
        {
          "name": "n",
          "type": "uint16"
        },
        {
          "name": "r",
          "type": "uint8"
        },
        {
          "name": "p",
          "type": "uint8"
        },
        {
          "name": "mac",
          "type": "bytes32"
        }
      ],
      "payable": false,
      "stateMutability": "view",
      "type": "function"
    },
    {
      "constant": true,
      "inputs": [
        {
          "name": "_sender",
          "type": "address"
        }
      ],
      "name": "isOracle",
      "outputs": [
        {
          "name": "",
          "type": "bool"
        }
      ],
      "payable": false,
      "stateMutability": "view",
      "type": "function"
    },
    {
      "constant": true,
      "inputs": [
        {
          "name": "",
          "type": "bytes32"
        }
      ],
      "name": "scryptHashParams",
      "outputs": [
        {
          "name": "hash",
          "type": "bytes32"
        },
        {
          "name": "ciphertext",
          "type": "bytes32"
        },
        {
          "name": "dklen",
          "type": "uint8"
        },
        {
          "name": "salt",
          "type": "bytes32"
        },
        {
          "name": "n",
          "type": "uint16"
        },
        {
          "name": "r",
          "type": "uint8"
        },
        {
          "name": "p",
          "type": "uint8"
        },
        {
          "name": "mac",
          "type": "bytes32"
        }
      ],
      "payable": false,
      "stateMutability": "view",
      "type": "function"
    },
    {
      "constant": true,
      "inputs": [
        {
          "name": "",
          "type": "uint256"
        }
      ],
      "name": "hashCracks",
      "outputs": [
        {
          "name": "requestorAddress",
          "type": "address"
        },
        {
          "name": "bountyValue",
          "type": "uint256"
        },
        {
          "name": "hashBytes",
          "type": "bytes32"
        },
        {
          "name": "hashType",
          "type": "string"
        },
        {
          "name": "crackerAddress",
          "type": "address"
        },
        {
          "name": "crackerPassword",
          "type": "string"
        },
        {
          "name": "cancelled",
          "type": "bool"
        },
        {
          "name": "redeemed",
          "type": "bool"
        }
      ],
      "payable": false,
      "stateMutability": "view",
      "type": "function"
    },
    {
      "inputs": [
        {
          "name": "_oracleAddress",
          "type": "address"
        }
      ],
      "payable": false,
      "stateMutability": "nonpayable",
      "type": "constructor"
    },
    {
      "anonymous": false,
      "inputs": [
        {
          "indexed": false,
          "name": "requestorAddress",
          "type": "address"
        },
        {
          "indexed": false,
          "name": "bountyValue",
          "type": "uint256"
        },
        {
          "indexed": false,
          "name": "hashBytes",
          "type": "bytes32"
        },
        {
          "indexed": false,
          "name": "hashType",
          "type": "string"
        }
      ],
      "name": "NewHashEvent",
      "type": "event"
    },
    {
      "anonymous": false,
      "inputs": [
        {
          "indexed": false,
          "name": "hashCrackIndex",
          "type": "uint256"
        },
        {
          "indexed": false,
          "name": "crackerAddress",
          "type": "address"
        },
        {
          "indexed": false,
          "name": "crackerPassword",
          "type": "string"
        }
      ],
      "name": "RequestHashCheck",
      "type": "event"
    },
    {
      "anonymous": false,
      "inputs": [
        {
          "indexed": false,
          "name": "crackerAddress",
          "type": "address"
        },
        {
          "indexed": false,
          "name": "hashCrackIndex",
          "type": "uint256"
        }
      ],
      "name": "CrackedHashEvent",
      "type": "event"
    },
    {
      "anonymous": false,
      "inputs": [
        {
          "indexed": false,
          "name": "hash",
          "type": "bytes32"
        }
      ],
      "name": "Log",
      "type": "event"
    },
    {
      "constant": false,
      "inputs": [
        {
          "name": "_hash",
          "type": "bytes32"
        },
        {
          "name": "_hashType",
          "type": "string"
        },
        {
          "name": "_input",
          "type": "bytes"
        }
      ],
      "name": "requestHashCrack",
      "outputs": [],
      "payable": true,
      "stateMutability": "payable",
      "type": "function"
    },
    {
      "constant": false,
      "inputs": [
        {
          "name": "_index",
          "type": "uint256"
        },
        {
          "name": "_password",
          "type": "string"
        }
      ],
      "name": "submitCrack",
      "outputs": [],
      "payable": true,
      "stateMutability": "payable",
      "type": "function"
    },
    {
      "constant": false,
      "inputs": [
        {
          "name": "_index",
          "type": "uint256"
        },
        {
          "name": "_crackerAddress",
          "type": "address"
        },
        {
          "name": "_crackerPassword",
          "type": "string"
        }
      ],
      "name": "submitValidCrack",
      "outputs": [],
      "payable": false,
      "stateMutability": "nonpayable",
      "type": "function"
    },
    {
      "constant": false,
      "inputs": [
        {
          "name": "_index",
          "type": "uint256"
        }
      ],
      "name": "cancelHashCrack",
      "outputs": [],
      "payable": false,
      "stateMutability": "nonpayable",
      "type": "function"
    },
    {
      "constant": false,
      "inputs": [
        {
          "name": "_index",
          "type": "uint256"
        }
      ],
      "name": "redeemRewardUnsafe",
      "outputs": [],
      "payable": false,
      "stateMutability": "nonpayable",
      "type": "function"
    },
    {
      "constant": true,
      "inputs": [],
      "name": "getHashCracksLength",
      "outputs": [
        {
          "name": "",
          "type": "uint256"
        }
      ],
      "payable": false,
      "stateMutability": "view",
      "type": "function"
    }
  ],
  "bytecode": "0x608060405234801561001057600080fd5b506040516020806119ed833981016040818152915160018054600160a060020a03909216600160a060020a03199092169190911781557f736861323536000000000000000000000000000000000000000000000000000082526003600680840182905284519384900360269081018520805460ff1990811686179091557f7368613300000000000000000000000000000000000000000000000000000000865260048601849052865195869003602401862080548216861790557f73637279707400000000000000000000000000000000000000000000000000008652918501929092529351928390030190912080549092161790556118d8806101156000396000f3006080604052600436106100b95763ffffffff7c01000000000000000000000000000000000000000000000000000000006000350416631e9d6c1381146100be5780635cb591fa1461011e5780636793dde71461016f578063773f1b54146101fe5780637dc0d1d014610216578063846293c31461024757806387792e12146102a557806390fdecda1461030e578063a97e5c9314610335578063ba7d73361461036a578063c411841414610382578063da8de31b146103e5575b600080fd5b3480156100ca57600080fd5b5060408051602060046024803582810135601f810185900485028601850190965285855261011c95833595369560449491939091019190819084018382808284375094975061051c9650505050505050565b005b60408051602060046024803582810135601f810185900485028601850190965285855261011c9583359536956044949193909101919081908401838280828437509497506106ff9650505050505050565b60408051602060046024803582810135601f810185900485028601850190965285855261011c95833595369560449491939091019190819084018382808284375050604080516020601f89358b018035918201839004830284018301909452808352979a999881019791965091820194509250829150840183828082843750949750610c319650505050505050565b34801561020a57600080fd5b5061011c600435610fe4565b34801561022257600080fd5b5061022b611087565b60408051600160a060020a039092168252519081900360200190f35b34801561025357600080fd5b5061025f600435611096565b6040805197885260ff96871660208901528781019590955261ffff9093166060870152908416608086015290921660a084015260c0830191909152519081900360e00190f35b3480156102b157600080fd5b50604080516020600460443581810135601f810184900484028501840190955284845261011c9482359460248035600160a060020a0316953695946064949201919081908401838280828437509497506110e29650505050505050565b34801561031a57600080fd5b506103236111c3565b60408051918252519081900360200190f35b34801561034157600080fd5b50610356600160a060020a03600435166111ca565b604080519115158252519081900360200190f35b34801561037657600080fd5b5061011c6004356111de565b34801561038e57600080fd5b5061039a6004356112f2565b60408051988952602089019790975260ff95861688880152606088019490945261ffff9092166080870152831660a086015290911660c084015260e083015251908190036101000190f35b3480156103f157600080fd5b506103fd600435611346565b60408051600160a060020a03808b16825260208083018b90529282018990528616608082015283151560c082015282151560e08201526101006060820181815288519183019190915287519192909160a0840191610120850191908a019080838360005b83811015610479578181015183820152602001610461565b50505050905090810190601f1680156104a65780820380516001836020036101000a031916815260200191505b50838103825286518152865160209182019188019080838360005b838110156104d95781810151838201526020016104c1565b50505050905090810190601f1680156105065780820380516001836020036101000a031916815260200191505b509a505050505050505050505060405180910390f35b60008060008060008060008888806040518082805190602001908083835b602083106105595780518252601f19909201916020918201910161053a565b5181516020939093036101000a600019018019909116921691909117905260405192018290039091208514925061059291505057600080fd5b61059b8a6114c8565b809950819a50829b50839c50849d50859e50869f5050505050505050610100604051908101604052808c6000191681526020018a6000191681526020018960ff168152602001886000191681526020018761ffff1681526020018660ff1681526020018560ff16815260200184600019168152506000808d60001916600019168152602001908152602001600020600082015181600001906000191690556020820151816001019060001916905560408201518160020160006101000a81548160ff021916908360ff1602179055506060820151816003019060001916905560808201518160040160006101000a81548161ffff021916908361ffff16021790555060a08201518160040160026101000a81548160ff021916908360ff16021790555060c08201518160040160036101000a81548160ff021916908360ff16021790555060e082015181600501906000191690559050505050505050505050505050565b600080662386f26fc100003481111561071757600080fd5b600280548690811061072557fe5b9060005260206000209060080201925082600701846040518082805190602001908083835b602083106107695780518252601f19909201916020918201910161074a565b51815160209384036101000a6000190180199092169116179052920194855250604051938490030190922054600160a060020a03161591506107ac905057600080fd5b600154604051600160a060020a03909116903480156108fc02916000818181858888f193505050501580156107e5573d6000803e3d6000fd5b50604080517f736861323536000000000000000000000000000000000000000000000000000081529051908190036006018120600385018054919290918190839060026101006001831615026000190190911604801561087c5780601f1061085a57610100808354040283529182019161087c565b820191906000526020600020905b815481529060010190602001808311610868575b50509150506040518091039020600019161415610930576002846040518082805190602001908083835b602083106108c55780518252601f1990920191602091820191016108a6565b51815160209384036101000a600019018019909216911617905260405191909301945091925050808303816000865af1158015610906573d6000803e3d6000fd5b5050506040513d602081101561091b57600080fd5b5051915061092b8533868561154b565b610c2a565b604080517f73686133000000000000000000000000000000000000000000000000000000008152905190819003600401812060038501805491929091819083906002610100600183161502600019019091160480156109c65780601f106109a45761010080835404028352918201916109c6565b820191906000526020600020905b8154815290600101906020018083116109b2575b50509150506040518091039020600019161415610a4857836040518082805190602001908083835b60208310610a0d5780518252601f1990920191602091820191016109ee565b6001836020036101000a0380198251168184511680821785525050505050509050019150506040518091039020915061092b8533868561154b565b604080517f7363727970740000000000000000000000000000000000000000000000000000815290519081900360060181206003850180549192909181908390600261010060018316150260001901909116048015610ade5780601f10610abc576101008083540402835291820191610ade565b820191906000526020600020905b815481529060010190602001808311610aca575b505091505060405180910390206000191614156100b9573383600701856040518082805190602001908083835b60208310610b2a5780518252601f199092019160209182019101610b0b565b51815160209384036101000a6000190180199092169116179052920194855250604080519485900382018520805473ffffffffffffffffffffffffffffffffffffffff1916600160a060020a039788161790558a8552339586168583015260609085018181528a519186019190915289517f52e0a2aaa607920fb5dd8c244aef8f719b3418761c639091c1b396392d251670968c969095508b94509260808401919085019080838360005b83811015610bed578181015183820152602001610bd5565b50505050905090810190601f168015610c1a5780820380516001836020036101000a031916815260200191505b5094505050505060405180910390a15b5050505050565b816003816040518082805190602001908083835b60208310610c645780518252601f199092019160209182019101610c45565b51815160209384036101000a600019018019909216911617905292019485525060405193849003019092205460ff1615159150610ca2905057600080fd5b67016345785d8a000034811115610cb857600080fd5b604080517f736372797074000000000000000000000000000000000000000000000000000081529051908190036006018120855190918691819060208401908083835b60208310610d1a5780518252601f199092019160209182019101610cfb565b6001836020036101000a0380198251168184511680821785525050505050509050019150506040518091039020600019161415610d5b57610d5b858461051c565b604080516101008101825233600160a060020a0390811682523460208084019182528385018a8152606085018a8152600060808701819052875180850190985280885260a087019790975260c0860187905260e0860187905260028054600181018083559190985286517f405787fa12a823e0f2b7631cc41b3ba8828b3321ca811111fa75cd3aa3bb5ace6008909902988901805473ffffffffffffffffffffffffffffffffffffffff19169190971617865593517f405787fa12a823e0f2b7631cc41b3ba8828b3321ca811111fa75cd3aa3bb5acf88015590517f405787fa12a823e0f2b7631cc41b3ba8828b3321ca811111fa75cd3aa3bb5ad08701555180519295610e92937f405787fa12a823e0f2b7631cc41b3ba8828b3321ca811111fa75cd3aa3bb5ad1909101929190910190611814565b50608082015160048201805473ffffffffffffffffffffffffffffffffffffffff1916600160a060020a0390921691909117905560a08201518051610ee1916005840191602090910190611814565b5060c08201516006909101805460e09093015115156101000261ff001992151560ff1990941693909317919091169190911790555060408051600160a060020a0333908116825234602080840182905293830189905260806060840181815289519185019190915288517f7fa461e2168f2e67290a768902eeef413a7086b80bd00282808b6bb55681da2395939492938b938b939092909160a08401919085019080838360005b83811015610fa0578181015183820152602001610f88565b50505050905090810190601f168015610fcd5780820380516001836020036101000a031916815260200191505b509550505050505060405180910390a15050505050565b6000600282815481101515610ff557fe5b6000918252602090912060046008909202019081015490915033600160a060020a03908116911614801561103357506006810154610100900460ff16155b156100b95760068101805461ff0019166101001790556001810154604051600160a060020a0333169180156108fc02916000818181858888f19350505050158015611082573d6000803e3d6000fd5b505050565b600154600160a060020a031681565b60009081526020819052604090206001810154600282015460038301546004840154600590940154929460ff92831694919361ffff831693620100008404811693630100000090041691565b600030600160a060020a031663a97e5c93336040518263ffffffff167c01000000000000000000000000000000000000000000000000000000000281526004018082600160a060020a0316600160a060020a03168152602001915050602060405180830381600087803b15801561115857600080fd5b505af115801561116c573d6000803e3d6000fd5b505050506040513d602081101561118257600080fd5b5051151561118f57600080fd5b600280548590811061119d57fe5b906000526020600020906008020190506111bd848484846002015461154b565b50505050565b6002545b90565b600154600160a060020a0390811691161490565b60008133600160a060020a03166002828154811015156111fa57fe5b6000918252602090912060089091020154600160a060020a03161461121e57600080fd5b8260028181548110151561122e57fe5b6000918252602090912060046008909202010154600160a060020a031615801561127a5750600280548290811061126157fe5b600091825260209091206006600890920201015460ff16155b151561128557600080fd5b600280548590811061129357fe5b6000918252602082206006600890920201908101805460ff19166001908117909155815490820154604051929650600160a060020a039091169281156108fc029290818181858888f19350505050158015610c2a573d6000803e3d6000fd5b6000602081905290815260409020805460018201546002830154600384015460048501546005909501549394929360ff92831693919261ffff83169262010000810482169263010000009091049091169088565b600280548290811061135457fe5b60009182526020918290206008919091020180546001808301546002808501546003860180546040805161010097831615979097026000190190911693909304601f8101899004890286018901909352828552600160a060020a03909516975091959194939183018282801561140b5780601f106113e05761010080835404028352916020019161140b565b820191906000526020600020905b8154815290600101906020018083116113ee57829003601f168201915b50505050600483015460058401805460408051602060026101006001861615026000190190941693909304601f81018490048402820184019092528181529596600160a060020a0390941695939450908301828280156114ac5780601f10611481576101008083540402835291602001916114ac565b820191906000526020600020905b81548152906001019060200180831161148f57829003601f168201915b5050506006909301549192505060ff8082169161010090041688565b600080600080600080600087805160651415156114e457600080fd5b6114ef89600061166d565b97506114fc8960206116fb565b965061150989602161166d565b9550611516896041611764565b94506115238960436116fb565b93506115308960446116fb565b925061153d89604561166d565b915050919395979092949650565b60008460028181548110151561155d57fe5b6000918252602090912060046008909202010154600160a060020a03161580156115a95750600280548290811061159057fe5b600091825260209091206006600890920201015460ff16155b15156115b457600080fd5b60028054879081106115c257fe5b6000918252602090912060089091020160028101549092508314156100b95760048201805473ffffffffffffffffffffffffffffffffffffffff1916600160a060020a03871617905583516116209060058401906020870190611814565b5060408051600160a060020a03871681526020810188905281517f0d543ef6f4a593d88bf5126fc281243b51bdff236df66b9dbf4932f84fba8e0c929181900390910190a1505050505050565b600080805b60208110156116f357806008028582860181518110151561168f57fe5b60209101015160029190910a7f0100000000000000000000000000000000000000000000000000000000000000918290049091027fff0000000000000000000000000000000000000000000000000000000000000016049190911790600101611672565b509392505050565b600080838381518110151561170c57fe5b6020910101517f01000000000000000000000000000000000000000000000000000000000000009081900481027fff000000000000000000000000000000000000000000000000000000000000001604179392505050565b600080805b60028110156117ea57806008028582860181518110151561178657fe5b60209101015160029190910a7f0100000000000000000000000000000000000000000000000000000000000000918290049091027fff0000000000000000000000000000000000000000000000000000000000000016049190911790600101611769565b507e0100000000000000000000000000000000000000000000000000000000000090049392505050565b828054600181600116156101000203166002900490600052602060002090601f016020900481019282601f1061185557805160ff1916838001178555611882565b82800160010185558215611882579182015b82811115611882578251825591602001919060010190611867565b5061188e929150611892565b5090565b6111c791905b8082111561188e57600081556001016118985600a165627a7a723058200fff31c972daf93d1bfbe28887f9f5bd97f2a4985c0d6018639cc3ed2a5cbbde0029",
  "source": "pragma solidity 0.4.23;\n\nimport \"./Scrypt.sol\";\nimport \"./Oracle.sol\";\n\ncontract HashCracker is Scrypt, Oracle {\n  \n    event NewHashEvent(address requestorAddress, uint bountyValue, bytes32 hashBytes, string hashType);\n    event RequestHashCheck(uint hashCrackIndex, address crackerAddress, string crackerPassword);\n    event CrackedHashEvent(address crackerAddress, uint hashCrackIndex);\n \n    struct HashCrack {\n        address requestorAddress;\n        uint bountyValue;\n\n        bytes32 hashBytes;\n        string hashType;\n       \n        address crackerAddress;\n        string crackerPassword;\n\n        bool cancelled;\n        bool redeemed;\n\n        mapping (string => address) pendingCrackRequests;\n    }\n\n    HashCrack[] public hashCracks;\n    mapping (string => bool) validHashTypes;\n\n    modifier hashCrackBySender(uint _index) {\n        require(hashCracks[_index].requestorAddress == msg.sender);\n        _;\n    }\n\n    modifier validHashType(string _hashType) {\n        require(validHashTypes[_hashType]);\n        _;\n    }\n\n    modifier validHashCrack(uint _index) {\n        require(hashCracks[_index].crackerAddress == 0x00 && !hashCracks[_index].cancelled);\n        _;\n    }\n    \n    modifier validMinValue(uint _value) {\n        require(msg.value >= _value);\n        _;\n    }\n\n    constructor(address _oracleAddress)\n    Oracle(_oracleAddress)\n    public \n    {\n        validHashTypes[\"sha256\"] = true;\n        validHashTypes[\"sha3\"] = true;\n        validHashTypes[\"scrypt\"] = true;\n    }\n\n    function requestHashCrack(bytes32 _hash, string _hashType, bytes _input)\n    validHashType(_hashType)\n    validMinValue(0.1 ether)\n    payable\n    public \n    {\n        if (keccak256(_hashType) == keccak256(\"scrypt\")) {\n            requestScryptHashCrack(_hash, _input);\n        }\n        hashCracks.push(HashCrack(msg.sender, msg.value, _hash, _hashType, 0x00, \"\", false, false));\n        emit NewHashEvent(msg.sender, msg.value, _hash, _hashType);\n    }\n\n    function submitCrack(uint _index, string _password) \n    validMinValue(0.01 ether)\n    payable\n    public \n    {\n        HashCrack storage hashCrack = hashCracks[_index];\n        if (hashCrack.pendingCrackRequests[_password] != 0x00) { // other user witth same password request\n            revert();\n        } \n        oracle.transfer(msg.value);\n        bytes32 hashedPassword;\n        if (keccak256(hashCrack.hashType) == keccak256(\"sha256\")) {\n            hashedPassword = sha256(_password);\n            handleCrackAttemptInternal(_index, msg.sender, _password, hashedPassword);\n        } else if (keccak256(hashCrack.hashType) == keccak256(\"sha3\")) {\n            hashedPassword = keccak256(_password);\n            handleCrackAttemptInternal(_index, msg.sender, _password, hashedPassword);\n        } else if (keccak256(hashCrack.hashType) == keccak256(\"scrypt\")) {\n            hashCrack.pendingCrackRequests[_password] = msg.sender;\n            emit RequestHashCheck(_index, msg.sender, _password);\n        } else {\n            revert();\n        }\n    }\n\n    function submitValidCrack(uint _index, address _crackerAddress, string _crackerPassword) \n    onlyOracle\n    public \n    {\n        HashCrack storage hashCrack = hashCracks[_index];\n        handleCrackAttemptInternal(_index, _crackerAddress, _crackerPassword, hashCrack.hashBytes);\n    }\n\n    function handleCrackAttemptInternal(uint _index, address _crackerAddress, string _crackerPassword, bytes32 _hashedPassword)\n    validHashCrack(_index)\n    internal\n    {\n        HashCrack storage hashCrack = hashCracks[_index];\n        if (_hashedPassword == hashCrack.hashBytes) {\n            hashCrack.crackerAddress = _crackerAddress;\n            hashCrack.crackerPassword = _crackerPassword;\n\n            emit CrackedHashEvent(_crackerAddress, _index);\n            \n            // if (keccak256(hashCrack.hashType) == keccak256(\"sha256\") || keccak256(hashCrack.hashType) == keccak256(\"sha3\")) {\n            //     redeemRewardUnsafe(_index);\n            // }\n        } else {\n            revert();\n        }\n    }\n\n    function cancelHashCrack(uint _index)\n    hashCrackBySender(_index) \n    validHashCrack(_index)\n    public \n    {\n        HashCrack storage hashCrack = hashCracks[_index];\n        hashCrack.cancelled = true;\n        address(hashCrack.requestorAddress).transfer(hashCrack.bountyValue);\n    }\n\n    function redeemRewardUnsafe(uint _index)\n    public\n    {\n        HashCrack storage hashCrack = hashCracks[_index];\n        if (msg.sender == hashCrack.crackerAddress && !hashCrack.redeemed) {\n            hashCrack.redeemed = true;\n            address(msg.sender).transfer(hashCrack.bountyValue);\n        } else {\n            revert();\n        }\n    }\n\n    function getHashCracksLength() \n    public \n    view \n    returns(uint) \n    {\n        return hashCracks.length;\n    }\n}\n",
  "sourcePath": "/Volumes/code/projects/decipher/contracts/HashCracker.sol",
  "compiler": {
    "name": "solc",
    "version": "0.4.23+commit.124ca40d.Emscripten.clang"
  },
  "schemaVersion": "2.0.0",
  "updatedAt": "2018-05-19T06:47:10.939Z"
}