{
  "contractName": "HashCracker",
  "abi": [
    {
      "constant": true,
      "inputs": [
        {
          "name": "",
          "type": "uint256"
        }
      ],
      "name": "hashCracks",
      "outputs": [
        {
          "name": "requestorAddress",
          "type": "address"
        },
        {
          "name": "bountyValue",
          "type": "uint256"
        },
        {
          "name": "hashBytes",
          "type": "bytes32"
        },
        {
          "name": "hashType",
          "type": "string"
        },
        {
          "name": "crackerAddress",
          "type": "address"
        },
        {
          "name": "crackedPassword",
          "type": "string"
        }
      ],
      "payable": false,
      "stateMutability": "view",
      "type": "function"
    },
    {
      "inputs": [],
      "payable": false,
      "stateMutability": "nonpayable",
      "type": "constructor"
    },
    {
      "anonymous": false,
      "inputs": [
        {
          "indexed": false,
          "name": "requestorAddress",
          "type": "address"
        },
        {
          "indexed": false,
          "name": "bountyValue",
          "type": "uint256"
        },
        {
          "indexed": false,
          "name": "hashBytes",
          "type": "bytes32"
        },
        {
          "indexed": false,
          "name": "hashType",
          "type": "string"
        }
      ],
      "name": "NewHashEvent",
      "type": "event"
    },
    {
      "anonymous": false,
      "inputs": [
        {
          "indexed": false,
          "name": "crackerAddress",
          "type": "address"
        },
        {
          "indexed": false,
          "name": "hashCrackIndex",
          "type": "uint256"
        }
      ],
      "name": "CrackedHashEvent",
      "type": "event"
    },
    {
      "constant": false,
      "inputs": [
        {
          "name": "_hashBytes",
          "type": "bytes32"
        },
        {
          "name": "_hashType",
          "type": "string"
        }
      ],
      "name": "requestHashCrack",
      "outputs": [],
      "payable": true,
      "stateMutability": "payable",
      "type": "function"
    },
    {
      "constant": false,
      "inputs": [
        {
          "name": "_index",
          "type": "uint256"
        },
        {
          "name": "_password",
          "type": "string"
        }
      ],
      "name": "submitCrack",
      "outputs": [],
      "payable": false,
      "stateMutability": "nonpayable",
      "type": "function"
    },
    {
      "constant": true,
      "inputs": [],
      "name": "getHashCracksLength",
      "outputs": [
        {
          "name": "",
          "type": "uint256"
        }
      ],
      "payable": false,
      "stateMutability": "view",
      "type": "function"
    }
  ],
  "bytecode": "0x608060405234801561001057600080fd5b50604080517f736861323536000000000000000000000000000000000000000000000000000081526001600682018190528251918290036026018220805460ff1990811683179091557f73686133000000000000000000000000000000000000000000000000000000008352600483018290529251918290036024019091208054909216179055610b8f806100a66000396000f3006080604052600436106100615763ffffffff7c010000000000000000000000000000000000000000000000000000000060003504166301b2c43281146100665780635cb591fa146100b957806390fdecda14610117578063da8de31b1461013e575b600080fd5b60408051602060046024803582810135601f81018590048502860185019096528585526100b795833595369560449491939091019190819084018382808284375094975061026e9650505050505050565b005b3480156100c557600080fd5b5060408051602060046024803582810135601f81018590048502860185019096528585526100b795833595369560449491939091019190819084018382808284375094975061056b9650505050505050565b34801561012357600080fd5b5061012c6107f6565b60408051918252519081900360200190f35b34801561014a57600080fd5b506101566004356107fd565b6040805173ffffffffffffffffffffffffffffffffffffffff808916825260208083018990529282018790528416608082015260c06060820181815286519183019190915285519192909160a084019160e08501919088019080838360005b838110156101cd5781810151838201526020016101b5565b50505050905090810190601f1680156101fa5780820380516001836020036101000a031916815260200191505b50838103825284518152845160209182019186019080838360005b8381101561022d578181015183820152602001610215565b50505050905090810190601f16801561025a5780820380516001836020036101000a031916815260200191505b509850505050505050505060405180910390f35b806001816040518082805190602001908083835b602083106102a15780518252601f199092019160209182019101610282565b51815160209384036101000a600019018019909216911617905292019485525060405193849003019092205460ff16151591506102df905057600080fd5b66038d7ea4c680003410156102f357600080fd5b6040805160c0810182523373ffffffffffffffffffffffffffffffffffffffff908116825234602080840191825283850188815260608501888152600060808701819052875180850190985280885260a087019790975286546001810180895597805286517f290decd9548b62a8d60345a988386fc84ba6bc95484008f6362f93160ef3e5636006909202918201805473ffffffffffffffffffffffffffffffffffffffff19169190971617865593517f290decd9548b62a8d60345a988386fc84ba6bc95484008f6362f93160ef3e56485015590517f290decd9548b62a8d60345a988386fc84ba6bc95484008f6362f93160ef3e565840155518051610421937f290decd9548b62a8d60345a988386fc84ba6bc95484008f6362f93160ef3e56601929190910190610acb565b50608082015160048201805473ffffffffffffffffffffffffffffffffffffffff191673ffffffffffffffffffffffffffffffffffffffff90921691909117905560a0820151805161047d916005840191602090910190610acb565b505050507f7fa461e2168f2e67290a768902eeef413a7086b80bd00282808b6bb55681da2333348585604051808573ffffffffffffffffffffffffffffffffffffffff1673ffffffffffffffffffffffffffffffffffffffff168152602001848152602001836000191660001916815260200180602001828103825283818151815260200191508051906020019080838360005b83811015610529578181015183820152602001610511565b50505050905090810190601f1680156105565780820380516001836020036101000a031916815260200191505b509550505050505060405180910390a1505050565b60008060008481548110151561057d57fe5b9060005260206000209060060201905060405180807f736861323536000000000000000000000000000000000000000000000000000081525060060190506040518091039020600019168160030160405180828054600181600116156101000203166002900480156106265780601f10610604576101008083540402835291820191610626565b820191906000526020600020905b815481529060010190602001808311610612575b505091505060405180910390206000191614156106d9576002836040518082805190602001908083835b6020831061066f5780518252601f199092019160209182019101610650565b51815160209384036101000a600019018019909216911617905260405191909301945091925050808303816000865af11580156106b0573d6000803e3d6000fd5b5050506040513d60208110156106c557600080fd5b505191506106d4848484610987565b6107f0565b604080517f736861330000000000000000000000000000000000000000000000000000000081529051908190036004018120600383018054919290918190839060026101006001831615026000190190911604801561076f5780601f1061074d57610100808354040283529182019161076f565b820191906000526020600020905b81548152906001019060200180831161075b575b5050915050604051809103902060001916141561006157826040518082805190602001908083835b602083106107b65780518252601f199092019160209182019101610797565b6001836020036101000a038019825116818451168082178552505050505050905001915050604051809103902091506106d4848484610987565b50505050565b6000545b90565b600080548290811061080b57fe5b60009182526020918290206006919091020180546001808301546002808501546003860180546040805161010097831615979097026000190190911693909304601f810189900489028601890190935282855273ffffffffffffffffffffffffffffffffffffffff90951697509195919493918301828280156108cf5780601f106108a4576101008083540402835291602001916108cf565b820191906000526020600020905b8154815290600101906020018083116108b257829003601f168201915b50505050600483015460058401805460408051602060026101006001861615026000190190941693909304601f8101849004840282018401909252818152959673ffffffffffffffffffffffffffffffffffffffff909416959394509083018282801561097d5780601f106109525761010080835404028352916020019161097d565b820191906000526020600020905b81548152906001019060200180831161096057829003601f168201915b5050505050905086565b60008060008581548110151561099957fe5b600091825260209091206006909102016002810154909250831490508080156109da5750600482015473ffffffffffffffffffffffffffffffffffffffff16155b156100615760048201805473ffffffffffffffffffffffffffffffffffffffff19163373ffffffffffffffffffffffffffffffffffffffff161790558351610a2b9060058401906020870190610acb565b506040805173ffffffffffffffffffffffffffffffffffffffff331681526020810187905281517f0d543ef6f4a593d88bf5126fc281243b51bdff236df66b9dbf4932f84fba8e0c929181900390910190a1600182015460405173ffffffffffffffffffffffffffffffffffffffff33169180156108fc02916000818181858888f19350505050158015610ac3573d6000803e3d6000fd5b505050505050565b828054600181600116156101000203166002900490600052602060002090601f016020900481019282601f10610b0c57805160ff1916838001178555610b39565b82800160010185558215610b39579182015b82811115610b39578251825591602001919060010190610b1e565b50610b45929150610b49565b5090565b6107fa91905b80821115610b455760008155600101610b4f5600a165627a7a72305820f2b95a9cbb28999f254fbec943eaf88ccc46db7d999d43b45891613a0c8d63070029",
  "source": "pragma solidity 0.4.23;\n\ncontract HashCracker {\n  \n    event NewHashEvent(address requestorAddress, uint bountyValue, bytes32 hashBytes, string hashType);\n    event CrackedHashEvent(address crackerAddress, uint hashCrackIndex);\n \n    struct HashCrack {\n        address requestorAddress;\n        uint bountyValue;\n\n        bytes32 hashBytes;\n        string hashType;\n       \n        address crackerAddress;\n        string crackedPassword;\n    }\n\n    HashCrack[] public hashCracks;\n    mapping (string => bool) validHashTypes;\n\n    modifier validHashType(string _hashType) {\n        require(validHashTypes[_hashType]);\n        _;\n    }\n    \n    modifier validMinValue() {\n        require(msg.value >= 0.001 ether);\n        _;\n    }\n\n    constructor()\n    public \n    {\n        validHashTypes[\"sha256\"] = true;\n        validHashTypes[\"sha3\"] = true;\n        // validHashTypes[\"ripemd160\"] = true;\n    }\n\n    function requestHashCrack(bytes32 _hashBytes, string _hashType)\n    validHashType(_hashType)\n    validMinValue\n    payable\n    public \n    {\n        hashCracks.push(HashCrack(msg.sender, msg.value, _hashBytes, _hashType, 0x00, \"\"));\n        emit NewHashEvent(msg.sender, msg.value, _hashBytes, _hashType);\n    }\n\n    function submitCrack(uint _index, string _password) \n    public \n    {\n        bytes32 hashedPassword;\n        HashCrack storage hashCrack = hashCracks[_index];\n        if (keccak256(hashCrack.hashType) == keccak256(\"sha256\")) {\n            hashedPassword = sha256(_password);\n            handleCrackAttemptInternal(_index, _password, hashedPassword);\n        } else if (keccak256(hashCrack.hashType) == keccak256(\"sha3\")) {\n            hashedPassword = keccak256(_password);\n            handleCrackAttemptInternal(_index, _password, hashedPassword);\n        } else {\n            revert();\n        }\n    }\n\n    function handleCrackAttemptInternal(uint _index, string _password, bytes32 _hashedPassword)\n    internal\n    {\n        HashCrack storage hashCrack = hashCracks[_index];\n        bool cracked = (_hashedPassword == hashCrack.hashBytes);\n        if (cracked && hashCrack.crackerAddress == 0x00) {\n            hashCrack.crackerAddress = msg.sender;\n            hashCrack.crackedPassword = _password;\n\n            emit CrackedHashEvent(msg.sender, _index);\n\n            address(msg.sender).transfer(hashCrack.bountyValue);\n        } else {\n            revert();\n        }\n    }\n\n    function getHashCracksLength() \n    public \n    view \n    returns(uint) \n    {\n        return hashCracks.length;\n    }\n}\n",
  "sourcePath": "/Volumes/code/projects/decipher/contracts/HashCracker.sol",
  "compiler": {
    "name": "solc",
    "version": "0.4.23+commit.124ca40d.Emscripten.clang"
  },
  "schemaVersion": "2.0.0",
  "updatedAt": "2018-05-10T17:54:41.156Z"
}