{
  "contractName": "HashCracker",
  "abi": [
    {
      "constant": true,
      "inputs": [
        {
          "name": "",
          "type": "uint256"
        }
      ],
      "name": "hashCracks",
      "outputs": [
        {
          "name": "requestorAddress",
          "type": "address"
        },
        {
          "name": "bountyValue",
          "type": "uint256"
        },
        {
          "name": "hashBytes",
          "type": "bytes32"
        },
        {
          "name": "hashType",
          "type": "string"
        },
        {
          "name": "crackerAddress",
          "type": "address"
        },
        {
          "name": "crackerPassword",
          "type": "string"
        },
        {
          "name": "cancelled",
          "type": "bool"
        }
      ],
      "payable": false,
      "stateMutability": "view",
      "type": "function"
    },
    {
      "inputs": [],
      "payable": false,
      "stateMutability": "nonpayable",
      "type": "constructor"
    },
    {
      "anonymous": false,
      "inputs": [
        {
          "indexed": false,
          "name": "requestorAddress",
          "type": "address"
        },
        {
          "indexed": false,
          "name": "bountyValue",
          "type": "uint256"
        },
        {
          "indexed": false,
          "name": "hashBytes",
          "type": "bytes32"
        },
        {
          "indexed": false,
          "name": "hashType",
          "type": "string"
        }
      ],
      "name": "NewHashEvent",
      "type": "event"
    },
    {
      "anonymous": false,
      "inputs": [
        {
          "indexed": false,
          "name": "crackerAddress",
          "type": "address"
        },
        {
          "indexed": false,
          "name": "hashCrackIndex",
          "type": "uint256"
        }
      ],
      "name": "CrackedHashEvent",
      "type": "event"
    },
    {
      "constant": false,
      "inputs": [
        {
          "name": "_hashBytes",
          "type": "bytes32"
        },
        {
          "name": "_hashType",
          "type": "string"
        }
      ],
      "name": "requestHashCrack",
      "outputs": [],
      "payable": true,
      "stateMutability": "payable",
      "type": "function"
    },
    {
      "constant": false,
      "inputs": [
        {
          "name": "_index",
          "type": "uint256"
        },
        {
          "name": "_password",
          "type": "string"
        }
      ],
      "name": "submitCrack",
      "outputs": [],
      "payable": false,
      "stateMutability": "nonpayable",
      "type": "function"
    },
    {
      "constant": false,
      "inputs": [
        {
          "name": "_index",
          "type": "uint256"
        }
      ],
      "name": "cancelHashCrack",
      "outputs": [],
      "payable": false,
      "stateMutability": "nonpayable",
      "type": "function"
    },
    {
      "constant": true,
      "inputs": [],
      "name": "getHashCracksLength",
      "outputs": [
        {
          "name": "",
          "type": "uint256"
        }
      ],
      "payable": false,
      "stateMutability": "view",
      "type": "function"
    }
  ],
  "bytecode": "0x608060405234801561001057600080fd5b50604080517f736861323536000000000000000000000000000000000000000000000000000081526001600682018190528251918290036026018220805460ff1990811683179091557f73686133000000000000000000000000000000000000000000000000000000008352600483018290529251918290036024019091208054909216179055610d84806100a66000396000f30060806040526004361061006c5763ffffffff7c010000000000000000000000000000000000000000000000000000000060003504166301b2c43281146100715780635cb591fa146100c457806390fdecda14610122578063ba7d733614610149578063da8de31b14610161575b600080fd5b60408051602060046024803582810135601f81018590048502860185019096528585526100c295833595369560449491939091019190819084018382808284375094975061029b9650505050505050565b005b3480156100d057600080fd5b5060408051602060046024803582810135601f81018590048502860185019096528585526100c29583359536956044949193909101919081908401838280828437509497506105bf9650505050505050565b34801561012e57600080fd5b5061013761084a565b60408051918252519081900360200190f35b34801561015557600080fd5b506100c2600435610851565b34801561016d57600080fd5b506101796004356109a0565b6040805173ffffffffffffffffffffffffffffffffffffffff808a16825260208083018a90529282018890528516608082015282151560c082015260e06060820181815287519183019190915286519192909160a08401916101008501919089019080838360005b838110156101f95781810151838201526020016101e1565b50505050905090810190601f1680156102265780820380516001836020036101000a031916815260200191505b50838103825285518152855160209182019187019080838360005b83811015610259578181015183820152602001610241565b50505050905090810190601f1680156102865780820380516001836020036101000a031916815260200191505b50995050505050505050505060405180910390f35b806001816040518082805190602001908083835b602083106102ce5780518252601f1990920191602091820191016102af565b51815160209384036101000a600019018019909216911617905292019485525060405193849003019092205460ff161515915061030c905057600080fd5b66038d7ea4c6800034101561032057600080fd5b6040805160e0810182523373ffffffffffffffffffffffffffffffffffffffff908116825234602080840191825283850188815260608501888152600060808701819052875180850190985280885260a087019790975260c0860187905286546001810180895597805286517f290decd9548b62a8d60345a988386fc84ba6bc95484008f6362f93160ef3e5636007909202918201805473ffffffffffffffffffffffffffffffffffffffff19169190971617865593517f290decd9548b62a8d60345a988386fc84ba6bc95484008f6362f93160ef3e56485015590517f290decd9548b62a8d60345a988386fc84ba6bc95484008f6362f93160ef3e565840155518051610455937f290decd9548b62a8d60345a988386fc84ba6bc95484008f6362f93160ef3e56601929190910190610cc0565b50608082015160048201805473ffffffffffffffffffffffffffffffffffffffff191673ffffffffffffffffffffffffffffffffffffffff90921691909117905560a082015180516104b1916005840191602090910190610cc0565b5060c08201518160060160006101000a81548160ff0219169083151502179055505050507f7fa461e2168f2e67290a768902eeef413a7086b80bd00282808b6bb55681da2333348585604051808573ffffffffffffffffffffffffffffffffffffffff1673ffffffffffffffffffffffffffffffffffffffff168152602001848152602001836000191660001916815260200180602001828103825283818151815260200191508051906020019080838360005b8381101561057d578181015183820152602001610565565b50505050905090810190601f1680156105aa5780820380516001836020036101000a031916815260200191505b509550505050505060405180910390a1505050565b6000806000848154811015156105d157fe5b9060005260206000209060070201905060405180807f7368613235360000000000000000000000000000000000000000000000000000815250600601905060405180910390206000191681600301604051808280546001816001161561010002031660029004801561067a5780601f1061065857610100808354040283529182019161067a565b820191906000526020600020905b815481529060010190602001808311610666575b5050915050604051809103902060001916141561072d576002836040518082805190602001908083835b602083106106c35780518252601f1990920191602091820191016106a4565b51815160209384036101000a600019018019909216911617905260405191909301945091925050808303816000865af1158015610704573d6000803e3d6000fd5b5050506040513d602081101561071957600080fd5b50519150610728848484610b33565b610844565b604080517f73686133000000000000000000000000000000000000000000000000000000008152905190819003600401812060038301805491929091819083906002610100600183161502600019019091160480156107c35780601f106107a15761010080835404028352918201916107c3565b820191906000526020600020905b8154815290600101906020018083116107af575b5050915050604051809103902060001916141561006c57826040518082805190602001908083835b6020831061080a5780518252601f1990920191602091820191016107eb565b6001836020036101000a03801982511681845116808217855250505050505090500191505060405180910390209150610728848484610b33565b50505050565b6000545b90565b6000813373ffffffffffffffffffffffffffffffffffffffff1660008281548110151561087a57fe5b600091825260209091206007909102015473ffffffffffffffffffffffffffffffffffffffff16146108ab57600080fd5b826000818154811015156108bb57fe5b600091825260209091206004600790920201015473ffffffffffffffffffffffffffffffffffffffff16158015610914575060008054829081106108fb57fe5b600091825260209091206006600790920201015460ff16155b151561091f57600080fd5b600080548590811061092d57fe5b6000918252602082206006600790920201908101805460ff1916600190811790915581549082015460405192965073ffffffffffffffffffffffffffffffffffffffff9091169281156108fc029290818181858888f19350505050158015610999573d6000803e3d6000fd5b5050505050565b60008054829081106109ae57fe5b60009182526020918290206007919091020180546001808301546002808501546003860180546040805161010097831615979097026000190190911693909304601f810189900489028601890190935282855273ffffffffffffffffffffffffffffffffffffffff9095169750919591949391830182828015610a725780601f10610a4757610100808354040283529160200191610a72565b820191906000526020600020905b815481529060010190602001808311610a5557829003601f168201915b50505050600483015460058401805460408051602060026101006001861615026000190190941693909304601f8101849004840282018401909252818152959673ffffffffffffffffffffffffffffffffffffffff9094169593945090830182828015610b205780601f10610af557610100808354040283529160200191610b20565b820191906000526020600020905b815481529060010190602001808311610b0357829003601f168201915b5050506006909301549192505060ff1687565b600083600081815481101515610b4557fe5b600091825260209091206004600790920201015473ffffffffffffffffffffffffffffffffffffffff16158015610b9e57506000805482908110610b8557fe5b600091825260209091206006600790920201015460ff16155b1515610ba957600080fd5b6000805486908110610bb757fe5b60009182526020909120600790910201600281015490925083141561006c5760048201805473ffffffffffffffffffffffffffffffffffffffff19163373ffffffffffffffffffffffffffffffffffffffff161790558351610c229060058401906020870190610cc0565b506040805173ffffffffffffffffffffffffffffffffffffffff331681526020810187905281517f0d543ef6f4a593d88bf5126fc281243b51bdff236df66b9dbf4932f84fba8e0c929181900390910190a1600182015460405173ffffffffffffffffffffffffffffffffffffffff33169180156108fc02916000818181858888f19350505050158015610cba573d6000803e3d6000fd5b50610999565b828054600181600116156101000203166002900490600052602060002090601f016020900481019282601f10610d0157805160ff1916838001178555610d2e565b82800160010185558215610d2e579182015b82811115610d2e578251825591602001919060010190610d13565b50610d3a929150610d3e565b5090565b61084e91905b80821115610d3a5760008155600101610d445600a165627a7a7230582037f6d661376913d1a0562c052a4cf616568ac6c8acb2b44d20e55e84cb4f63220029",
  "source": "pragma solidity 0.4.23;\n\ncontract HashCracker {\n  \n    event NewHashEvent(address requestorAddress, uint bountyValue, bytes32 hashBytes, string hashType);\n    event CrackedHashEvent(address crackerAddress, uint hashCrackIndex);\n \n    struct HashCrack {\n        address requestorAddress;\n        uint bountyValue;\n\n        bytes32 hashBytes;\n        string hashType;\n       \n        address crackerAddress;\n        string crackerPassword;\n\n        bool cancelled;\n    }\n\n    HashCrack[] public hashCracks;\n    mapping (string => bool) validHashTypes;\n\n    modifier hashCrackBySender(uint _index) {\n        require(hashCracks[_index].requestorAddress == msg.sender);\n        _;\n    }\n\n    modifier validHashType(string _hashType) {\n        require(validHashTypes[_hashType]);\n        _;\n    }\n\n    modifier validHashCrack(uint _index) {\n        require(hashCracks[_index].crackerAddress == 0x00 && !hashCracks[_index].cancelled);\n        _;\n    }\n    \n    modifier validMinValue() {\n        require(msg.value >= 0.001 ether);\n        _;\n    }\n\n    constructor()\n    public \n    {\n        validHashTypes[\"sha256\"] = true;\n        validHashTypes[\"sha3\"] = true;\n        // validHashTypes[\"ripemd160\"] = true;\n    }\n\n    function requestHashCrack(bytes32 _hashBytes, string _hashType)\n    validHashType(_hashType)\n    validMinValue\n    payable\n    public \n    {\n        hashCracks.push(HashCrack(msg.sender, msg.value, _hashBytes, _hashType, 0x00, \"\", false));\n        emit NewHashEvent(msg.sender, msg.value, _hashBytes, _hashType);\n    }\n\n    function submitCrack(uint _index, string _password) \n    public \n    {\n        bytes32 hashedPassword;\n        HashCrack storage hashCrack = hashCracks[_index];\n        if (keccak256(hashCrack.hashType) == keccak256(\"sha256\")) {\n            hashedPassword = sha256(_password);\n            handleCrackAttemptInternal(_index, _password, hashedPassword);\n        } else if (keccak256(hashCrack.hashType) == keccak256(\"sha3\")) {\n            hashedPassword = keccak256(_password);\n            handleCrackAttemptInternal(_index, _password, hashedPassword);\n        } else {\n            revert();\n        }\n    }\n\n    function cancelHashCrack(uint _index)\n    hashCrackBySender(_index) \n    validHashCrack(_index)\n    public \n    {\n        HashCrack storage hashCrack = hashCracks[_index];\n        hashCrack.cancelled = true;\n        address(hashCrack.requestorAddress).transfer(hashCrack.bountyValue);\n    }\n\n    function handleCrackAttemptInternal(uint _index, string _password, bytes32 _hashedPassword)\n    validHashCrack(_index)\n    internal\n    {\n        HashCrack storage hashCrack = hashCracks[_index];\n        if (_hashedPassword == hashCrack.hashBytes) {\n            hashCrack.crackerAddress = msg.sender;\n            hashCrack.crackerPassword = _password;\n\n            emit CrackedHashEvent(msg.sender, _index);\n\n            address(msg.sender).transfer(hashCrack.bountyValue);\n        } else {\n            revert();\n        }\n    }\n\n    function getHashCracksLength() \n    public \n    view \n    returns(uint) \n    {\n        return hashCracks.length;\n    }\n}\n",
  "sourcePath": "/Volumes/code/projects/decipher/contracts/HashCracker.sol",
  "compiler": {
    "name": "solc",
    "version": "0.4.23+commit.124ca40d.Emscripten.clang"
  },
  "schemaVersion": "2.0.0",
  "updatedAt": "2018-05-10T19:41:10.444Z"
}